:020000020000FC
:0C0000000C943C000C94B5040C94B70464
:04003C000C946104BB
:04005C000C943104CB
:100074000C941504F8940FEF0DBF01E20EBF002796
:100084001127222744276627C0E0D2E000270883EF
:10009400C1E0D2E000270883C2E0D2E00027088351
:1000A400C3E0D2E000270883C4E0D2E0002708833D
:1000B400C5E0D2E000270883C6E0D2E00027088329
:1000C400C7E0D2E0002709930883C9E0D2E0002703
:1000D40009930883CBE0D2E00027099308830FEF4C
:1000E40007B900BB01B903E003BB002701BB02B998
:1000F40008B904BB0AB90AE0009369000DB30360B0
:100104000DBB02E005BD01E000936E0002E0009328
:10011400B10001E00093700004E000932101002786
:10012400009322010093200108E32FD43ED457D436
:1001340008E32BD43AD44AD408E327D436D408E3CA
:1001440024D433D408E021D430D401E01ED42DD4F7
:1001540006E01BD42AD40CE018D427D4D2E0C0E0A3
:1001640001E0088302E318D420D401E315D41DD49C
:1001740002E312D41AD401E30FD417D400E20CD44E
:1001840014D401E309D411D406E306D40ED403E74E
:1001940003D40BD401E300D408D400ECF6D305D483
:1001A40003E5FAD302D401E6F7D3FFD306E6F4D38A
:1001B400FCD305E6F1D3F9D300E2EED3F6D303E49E
:1001C400EBD3F3D302E7E8D3F0D301E6E5D3EDD3E1
:1001D40003E6E2D3EAD30BE6DFD3E7D305E6DCD3C9
:1001E400E4D302E7D9D3E1D378940C94C504D2E0E4
:1001F400C0E002E00883112701E0C7D3D6D306E0AC
:10020400C4D3D3D30CE0C1D3D0D302E3C5D3CDD36D
:1002140001E3C2D3CAD302E3BFD3C7D301E3BCD340
:10022400C4D300E2B9D3C1D301E3B6D3BED306E34A
:10023400B3D3BBD303E7B0D3B8D301E3ADD3B5D3C2
:1002440000ECA3D3B2D303E5A7D3AFD304E7A4D37D
:10025400ACD301E6A1D3A9D302E79ED3A6D304E786
:100264009BD3A3D309E698D3A0D30EE695D39DD30D
:1002740007E692D39AD300E28FD397D309E68CD3BF
:1002840094D30EE689D391D300E286D38ED303E3CD
:1002940083D38BD30EE280D388D30EE27DD385D370
:1002A4000EE27AD382D300E170D37FD300E16DD321
:1002B4007CD300E16AD379D300E167D376D3D2E06B
:1002C400C2E003E00883D2E0C1E001E00883F2E089
:1002D400E3E020812130D9F7D2E0C2E00881003088
:1002E40091F00F9300630F93002F0E94CE040E949D
:1002F400D7040F910F9100E148D357D3D2E0C3E064
:1003040000E00883E4CFD2E0C0E003E00883D2E059
:10031400C1E000E0088301E038D347D306E035D3D9
:1003240044D30CE032D341D302E536D33ED305E6C1
:1003340033D33BD303E730D338D305E62DD335D3BA
:1003440004E72AD332D300E227D32FD300E524D302
:100354002CD30FE421D329D304E51ED326D300E202
:100364001BD323D304E718D320D30FE615D31DD30F
:1003740000E212D31AD300E30FD317D300EC05D352
:1003840014D302E509D311D305E606D30ED30DE643
:1003940003D30BD301E600D308D309E6FDD205D37A
:1003A4000EE6FAD202D309E6F7D2FFD20EE6F4D271
:1003B400FCD207E6F1D2F9D20AE3EED2F6D200E299
:1003C400EBD2F3D2D2E0C2E009E00883D2E0C1E08C
:1003D40001E00883D2E0C4E000E00883D2E0C5E095
:1003E40001E00883B2E0A5E00C91003011F40C9414
:1003F4003802D2E0C6E000E400937C0008E00093F9
:100404007B000DEC00937A0078941881103029F465
:10041400D2E0C4E001E008830BC0E1D2E0D2DFD235
:10042400D2E0C5E001E00883D2E0C4E000E0088344
:10043400F2E0E3E020812130A9F6D2E0C2E00881B5
:10044400003011F40C9476030F9300630F93002F84
:100454000E94CE040E94D7040F910F9100E195D21F
:10046400A4D2D2E0C3E000E00883BCCFD2E0C0E075
:1004740004E00883D2E0C1E001E0088301E085D212
:1004840094D206E082D291D20CE07FD28ED206E4DE
:1004940083D28BD209E680D288D20EE67DD285D271
:1004A40004E67AD282D200E277D27FD200E574D217
:1004B4007CD20FE471D279D204E56ED276D200E216
:1004C4006BD273D200E568D270D20FE665D26DD2DA
:1004D40003E762D26AD200EC58D267D202E55CD25A
:1004E40064D205E659D261D20DE656D25ED201E657
:1004F40053D25BD209E650D258D20EE64DD255D231
:1005040009E64AD252D20EE647D24FD207E644D287
:100514004CD20AE341D249D200E23ED246D26091A3
:10052400240166956695D2E0C4E000E00883D2E039
:10053400C5E002E00883B2E0A5E00C91003031F49C
:10054400D2E0C1E000E008830C940603D2E0C6E0E8
:1005540000E400937C0008E000937B000DEC009322
:100564007A0078941881161749F42FEF28B923E0FC
:1005740024BBD2E0C4E001E0088326C030D22FD2ED
:100584002ED216172CF0222728B924BB0C948501EF
:10059400D2E0C5E002E00883D2E0C4E000E00883D2
:1005A400212F2E5F621734F0212F2D5F62173CF04C
:1005B4000C94E6022FEF28B921E024BB05C02FEFED
:1005C40028B9222724BB00C0F2E0E3E020812130D7
:1005D400C9F4D2E0C2E00881003011F40C9476032F
:1005E4000F9300630F93002F0E94CE040E94D70440
:1005F4000F910F9100E1C9D1D8D1D2E0C3E000E05E
:10060400088399CF0C949D02D2E0C0E005E00883F2
:10061400D2E0C1E000E0088301E0B7D1C6D106E032
:10062400B4D1C3D10CE0B1D1C0D100E5B5D1BDD1B5
:100634000FE6B2D1BAD103E7AFD1B7D109E6ACD155
:10064400B4D104E7A9D1B1D109E6A6D1AED10FE660
:10065400A3D1ABD10EE6A0D1A8D100E29DD1A5D102
:1006640006E49AD1A2D10FE697D19FD105E794D1A0
:100674009CD10EE691D199D104E68ED196D101E2B6
:100684008BD193D100EC81D190D103E585D18DD16B
:1006940003E682D18AD101E67FD187D10EE67CD1EF
:1006A40084D100E279D181D106E676D17ED10FE6FC
:1006B40073D17BD102E770D178D100E26DD175D1CD
:1006C4000EE66AD172D105E767D16FD10DE664D128
:1006D4006CD102E661D169D105E65ED166D102E74B
:1006E4005BD163D10C947403D2E0C0E008E00883CA
:1006F400D2E0C1E000E0088301E047D156D106E032
:1007040044D153D10CE041D150D107E445D14DD16E
:1007140001E642D14AD10DE63FD147D105E63CD1AD
:1007240044D100E239D141D10FE636D13ED106E7BA
:1007340033D13BD105E630D138D102E72DD135D1C3
:1007440000EC23D132D109E527D12FD10FE624D1F2
:100754002CD105E721D129D100E21ED126D10CE408
:100764001BD123D10FE618D120D103E715D11DD118
:1007740005E612D11AD101E20FD117D104C1D2E09A
:10078400C0E007E00883D2E0C1E000E0088301E0B4
:10079400FCD00BD106E0F9D008D10CE0F6D005D19D
:1007A40007E4FAD002D101E6F7D0FFD00DE6F4D089
:1007B400FCD005E6F1D0F9D000E2EED0F6D003E6A5
:1007C400EBD0F3D00FE6E8D0F0D00DE6E5D0EDD0D5
:1007D40000E7E2D0EAD00CE6DFD0E7D005E6DCD0D3
:1007E400E4D004E7D9D0E1D005E6D6D0DED000ECE1
:1007F400CCD0DBD009E5D0D0D8D00FE6CDD0D5D041
:1008040005E7CAD0D2D000E2C7D0CFD007E5C4D024
:10081400CCD009E6C1D0C9D00EE6BED0C6D001E224
:10082400BBD0C3D0B0C00F930FB70F931F93FF93E8
:10083400EF9300917800109179001695079516951D
:1008440007951695079516950795F2E0E6E000835F
:10085400EF91FF911F910F910FBF0F9118950FB753
:100864000F931F93DF93CF939F938F9380910902EC
:1008740090910A02019684380EE19007A1F4C9E030
:10088400D2E0002709930883D2E0C1E01881103038
:1008940071F0D2E0C3E001E00883D2E0C2E0188145
:1008A4001A95188304C08093090290930A028F91C9
:1008B4009F91CF91DF911F910F910FBF18950FB7A3
:1008C4000F931F93DF93CF939F938F9380910D0288
:1008D40090910E02019682340FE0900781F4CDE0EE
:1008E400D2E0002709930883D2E0C4E018811030D5
:1008F40051F0D2E0C5E008810A95088304C08093D2
:100904000D0290930E028F919F91CF91DF911F91D1
:100914000F910FBF189580910B0290910C020196D4
:10092400853A0AE0900739F44427CBE0D2E0002767
:1009340009930883089580930B0290930C02A0916D
:100944000B02B0910C021196AC3003E0B00739F4FD
:100954004427CBE0D2E00027099308830895A093AD
:100964000B02B0930C020C943C00403009F0E7DF1A
:1009740043957894D2E0C0E00881013011F00C94E2
:100984003C000C94F900FFCF089501BB1FD0169AC8
:100994001DD016981BD0089501BB179A17D0169A2C
:1009A40015D0169813D0179808950F93002700BBFD
:1009B40001BB159A0BD0169A09D00FB1169807FDF2
:1009C400F9CF15980FEF00BB0F9108958F939F9364
:1009D4009FE08CE90197F1F79F918F910895F6DFDD
:0A09E400F5DFF4DFF3DFF2DF089522
:00000001FF
